{
  "_format": "hh-sol-artifact-1",
  "contractName": "BeefyBattlesEventV1",
  "sourceName": "contracts/BeefyBattlesEventV1.sol",
  "abi": [
    {
      "inputs": [
        {
          "internalType": "string",
          "name": "_name",
          "type": "string"
        },
        {
          "internalType": "string",
          "name": "_symbol",
          "type": "string"
        },
        {
          "internalType": "address",
          "name": "_wantAddress",
          "type": "address"
        },
        {
          "internalType": "address",
          "name": "_beefyVaultAddress",
          "type": "address"
        },
        {
          "internalType": "address",
          "name": "_server",
          "type": "address"
        }
      ],
      "stateMutability": "nonpayable",
      "type": "constructor"
    },
    {
      "anonymous": false,
      "inputs": [
        {
          "indexed": true,
          "internalType": "address",
          "name": "owner",
          "type": "address"
        },
        {
          "indexed": true,
          "internalType": "address",
          "name": "approved",
          "type": "address"
        },
        {
          "indexed": true,
          "internalType": "uint256",
          "name": "tokenId",
          "type": "uint256"
        }
      ],
      "name": "Approval",
      "type": "event"
    },
    {
      "anonymous": false,
      "inputs": [
        {
          "indexed": true,
          "internalType": "address",
          "name": "owner",
          "type": "address"
        },
        {
          "indexed": true,
          "internalType": "address",
          "name": "operator",
          "type": "address"
        },
        {
          "indexed": false,
          "internalType": "bool",
          "name": "approved",
          "type": "bool"
        }
      ],
      "name": "ApprovalForAll",
      "type": "event"
    },
    {
      "anonymous": false,
      "inputs": [
        {
          "indexed": true,
          "internalType": "address",
          "name": "previousOwner",
          "type": "address"
        },
        {
          "indexed": true,
          "internalType": "address",
          "name": "newOwner",
          "type": "address"
        }
      ],
      "name": "OwnershipTransferred",
      "type": "event"
    },
    {
      "anonymous": false,
      "inputs": [
        {
          "indexed": true,
          "internalType": "address",
          "name": "from",
          "type": "address"
        },
        {
          "indexed": true,
          "internalType": "address",
          "name": "to",
          "type": "address"
        },
        {
          "indexed": true,
          "internalType": "uint256",
          "name": "tokenId",
          "type": "uint256"
        }
      ],
      "name": "Transfer",
      "type": "event"
    },
    {
      "inputs": [
        {
          "internalType": "address",
          "name": "to",
          "type": "address"
        },
        {
          "internalType": "uint256",
          "name": "tokenId",
          "type": "uint256"
        }
      ],
      "name": "approve",
      "outputs": [],
      "stateMutability": "nonpayable",
      "type": "function"
    },
    {
      "inputs": [
        {
          "internalType": "address",
          "name": "owner",
          "type": "address"
        }
      ],
      "name": "balanceOf",
      "outputs": [
        {
          "internalType": "uint256",
          "name": "",
          "type": "uint256"
        }
      ],
      "stateMutability": "view",
      "type": "function"
    },
    {
      "inputs": [
        {
          "internalType": "uint256",
          "name": "_multiplier",
          "type": "uint256"
        }
      ],
      "name": "deposit",
      "outputs": [],
      "stateMutability": "nonpayable",
      "type": "function"
    },
    {
      "inputs": [],
      "name": "eventState",
      "outputs": [
        {
          "internalType": "enum BeefyBattlesEventV1.EVENT_STATE",
          "name": "",
          "type": "uint8"
        }
      ],
      "stateMutability": "view",
      "type": "function"
    },
    {
      "inputs": [
        {
          "internalType": "uint256",
          "name": "tokenId",
          "type": "uint256"
        }
      ],
      "name": "getApproved",
      "outputs": [
        {
          "internalType": "address",
          "name": "",
          "type": "address"
        }
      ],
      "stateMutability": "view",
      "type": "function"
    },
    {
      "inputs": [],
      "name": "harvestRewards",
      "outputs": [],
      "stateMutability": "nonpayable",
      "type": "function"
    },
    {
      "inputs": [
        {
          "internalType": "address",
          "name": "owner",
          "type": "address"
        },
        {
          "internalType": "address",
          "name": "operator",
          "type": "address"
        }
      ],
      "name": "isApprovedForAll",
      "outputs": [
        {
          "internalType": "bool",
          "name": "",
          "type": "bool"
        }
      ],
      "stateMutability": "view",
      "type": "function"
    },
    {
      "inputs": [
        {
          "internalType": "uint256",
          "name": "",
          "type": "uint256"
        }
      ],
      "name": "multiplier",
      "outputs": [
        {
          "internalType": "uint256",
          "name": "",
          "type": "uint256"
        }
      ],
      "stateMutability": "view",
      "type": "function"
    },
    {
      "inputs": [],
      "name": "name",
      "outputs": [
        {
          "internalType": "string",
          "name": "",
          "type": "string"
        }
      ],
      "stateMutability": "view",
      "type": "function"
    },
    {
      "inputs": [],
      "name": "openEvent",
      "outputs": [],
      "stateMutability": "nonpayable",
      "type": "function"
    },
    {
      "inputs": [],
      "name": "owner",
      "outputs": [
        {
          "internalType": "address",
          "name": "",
          "type": "address"
        }
      ],
      "stateMutability": "view",
      "type": "function"
    },
    {
      "inputs": [
        {
          "internalType": "uint256",
          "name": "tokenId",
          "type": "uint256"
        }
      ],
      "name": "ownerOf",
      "outputs": [
        {
          "internalType": "address",
          "name": "",
          "type": "address"
        }
      ],
      "stateMutability": "view",
      "type": "function"
    },
    {
      "inputs": [
        {
          "internalType": "address",
          "name": "_winner",
          "type": "address"
        },
        {
          "internalType": "address",
          "name": "_loser",
          "type": "address"
        },
        {
          "internalType": "uint256",
          "name": "_winnerTrophies",
          "type": "uint256"
        },
        {
          "internalType": "uint256",
          "name": "_loserTrophies",
          "type": "uint256"
        }
      ],
      "name": "postResult",
      "outputs": [],
      "stateMutability": "nonpayable",
      "type": "function"
    },
    {
      "inputs": [],
      "name": "renounceOwnership",
      "outputs": [],
      "stateMutability": "nonpayable",
      "type": "function"
    },
    {
      "inputs": [
        {
          "internalType": "address",
          "name": "from",
          "type": "address"
        },
        {
          "internalType": "address",
          "name": "to",
          "type": "address"
        },
        {
          "internalType": "uint256",
          "name": "tokenId",
          "type": "uint256"
        }
      ],
      "name": "safeTransferFrom",
      "outputs": [],
      "stateMutability": "nonpayable",
      "type": "function"
    },
    {
      "inputs": [
        {
          "internalType": "address",
          "name": "from",
          "type": "address"
        },
        {
          "internalType": "address",
          "name": "to",
          "type": "address"
        },
        {
          "internalType": "uint256",
          "name": "tokenId",
          "type": "uint256"
        },
        {
          "internalType": "bytes",
          "name": "_data",
          "type": "bytes"
        }
      ],
      "name": "safeTransferFrom",
      "outputs": [],
      "stateMutability": "nonpayable",
      "type": "function"
    },
    {
      "inputs": [
        {
          "internalType": "address",
          "name": "operator",
          "type": "address"
        },
        {
          "internalType": "bool",
          "name": "approved",
          "type": "bool"
        }
      ],
      "name": "setApprovalForAll",
      "outputs": [],
      "stateMutability": "nonpayable",
      "type": "function"
    },
    {
      "inputs": [
        {
          "internalType": "uint256[]",
          "name": "_rewardsBase",
          "type": "uint256[]"
        }
      ],
      "name": "setRewardsBase",
      "outputs": [],
      "stateMutability": "nonpayable",
      "type": "function"
    },
    {
      "inputs": [
        {
          "internalType": "address",
          "name": "_server",
          "type": "address"
        }
      ],
      "name": "setServer",
      "outputs": [],
      "stateMutability": "nonpayable",
      "type": "function"
    },
    {
      "inputs": [
        {
          "internalType": "bytes4",
          "name": "interfaceId",
          "type": "bytes4"
        }
      ],
      "name": "supportsInterface",
      "outputs": [
        {
          "internalType": "bool",
          "name": "",
          "type": "bool"
        }
      ],
      "stateMutability": "view",
      "type": "function"
    },
    {
      "inputs": [],
      "name": "symbol",
      "outputs": [
        {
          "internalType": "string",
          "name": "",
          "type": "string"
        }
      ],
      "stateMutability": "view",
      "type": "function"
    },
    {
      "inputs": [
        {
          "internalType": "address",
          "name": "",
          "type": "address"
        }
      ],
      "name": "token",
      "outputs": [
        {
          "internalType": "uint256",
          "name": "",
          "type": "uint256"
        }
      ],
      "stateMutability": "view",
      "type": "function"
    },
    {
      "inputs": [
        {
          "internalType": "uint256",
          "name": "tokenId",
          "type": "uint256"
        }
      ],
      "name": "tokenURI",
      "outputs": [
        {
          "internalType": "string",
          "name": "",
          "type": "string"
        }
      ],
      "stateMutability": "view",
      "type": "function"
    },
    {
      "inputs": [
        {
          "internalType": "address",
          "name": "from",
          "type": "address"
        },
        {
          "internalType": "address",
          "name": "to",
          "type": "address"
        },
        {
          "internalType": "uint256",
          "name": "tokenId",
          "type": "uint256"
        }
      ],
      "name": "transferFrom",
      "outputs": [],
      "stateMutability": "nonpayable",
      "type": "function"
    },
    {
      "inputs": [
        {
          "internalType": "address",
          "name": "newOwner",
          "type": "address"
        }
      ],
      "name": "transferOwnership",
      "outputs": [],
      "stateMutability": "nonpayable",
      "type": "function"
    },
    {
      "inputs": [
        {
          "internalType": "uint256",
          "name": "",
          "type": "uint256"
        }
      ],
      "name": "trophies",
      "outputs": [
        {
          "internalType": "uint256",
          "name": "",
          "type": "uint256"
        }
      ],
      "stateMutability": "view",
      "type": "function"
    },
    {
      "inputs": [
        {
          "internalType": "uint256",
          "name": "_tokenId",
          "type": "uint256"
        }
      ],
      "name": "withdraw",
      "outputs": [],
      "stateMutability": "nonpayable",
      "type": "function"
    },
    {
      "inputs": [
        {
          "internalType": "uint256",
          "name": "_tokenId",
          "type": "uint256"
        }
      ],
      "name": "withdrawAndClaim",
      "outputs": [],
      "stateMutability": "nonpayable",
      "type": "function"
    }
  ],
  "bytecode": "0x60806040523480156200001157600080fd5b5060405162003013380380620030138339810160408190526200003491620006b6565b84846200004133620000d4565b81516200005690600190602085019062000519565b5080516200006c90600290602084019062000519565b5050600780546001600160a01b038681166001600160a01b031992831617909255600880548684166001600160a81b031990911617600160a01b17905560098054909116918416919091179055506001600b55620000c962000124565b505050505062000826565b600080546001600160a01b038381166001600160a01b0319831681178455604051919092169283917f8be0079c531659141344cd1fd0a4f28419497f9722a3daafe3b4186f6b6457e09190a35050565b60085460075462000151916001600160a01b03918216911660001962000153602090811b6200133117901c565b565b801580620001d15750604051636eb1769f60e11b81523060048201526001600160a01b03838116602483015284169063dd62ed3e90604401602060405180830381865afa158015620001a9573d6000803e3d6000fd5b505050506040513d601f19601f82011682018060405250810190620001cf919062000758565b155b620002495760405162461bcd60e51b815260206004820152603660248201527f5361666545524332303a20617070726f76652066726f6d206e6f6e2d7a65726f60448201527f20746f206e6f6e2d7a65726f20616c6c6f77616e63650000000000000000000060648201526084015b60405180910390fd5b604080516001600160a01b038416602482015260448082018490528251808303909101815260649091019091526020810180516001600160e01b0390811663095ea7b360e01b17909152620002a1918591620002a616565b505050565b600062000302826040518060400160405280602081526020017f5361666545524332303a206c6f772d6c6576656c2063616c6c206661696c6564815250856001600160a01b03166200038460201b62001479179092919060201c565b805190915015620002a1578080602001905181019062000323919062000772565b620002a15760405162461bcd60e51b815260206004820152602a60248201527f5361666545524332303a204552433230206f7065726174696f6e20646964206e6044820152691bdd081cdd58d8d9595960b21b606482015260840162000240565b60606200039584846000856200039f565b90505b9392505050565b606082471015620004025760405162461bcd60e51b815260206004820152602660248201527f416464726573733a20696e73756666696369656e742062616c616e636520666f6044820152651c8818d85b1b60d21b606482015260840162000240565b6001600160a01b0385163b6200045b5760405162461bcd60e51b815260206004820152601d60248201527f416464726573733a2063616c6c20746f206e6f6e2d636f6e7472616374000000604482015260640162000240565b600080866001600160a01b0316858760405162000479919062000796565b60006040518083038185875af1925050503d8060008114620004b8576040519150601f19603f3d011682016040523d82523d6000602084013e620004bd565b606091505b509092509050620004d0828286620004db565b979650505050505050565b60608315620004ec57508162000398565b825115620004fd5782518084602001fd5b8160405162461bcd60e51b8152600401620002409190620007b4565b8280546200052790620007e9565b90600052602060002090601f0160209004810192826200054b576000855562000596565b82601f106200056657805160ff191683800117855562000596565b8280016001018555821562000596579182015b828111156200059657825182559160200191906001019062000579565b50620005a4929150620005a8565b5090565b5b80821115620005a45760008155600101620005a9565b634e487b7160e01b600052604160045260246000fd5b60005b83811015620005f2578181015183820152602001620005d8565b8381111562000602576000848401525b50505050565b600082601f8301126200061a57600080fd5b81516001600160401b0380821115620006375762000637620005bf565b604051601f8301601f19908116603f01168101908282118183101715620006625762000662620005bf565b816040528381528660208588010111156200067c57600080fd5b6200068f846020830160208901620005d5565b9695505050505050565b80516001600160a01b0381168114620006b157600080fd5b919050565b600080600080600060a08688031215620006cf57600080fd5b85516001600160401b0380821115620006e757600080fd5b620006f589838a0162000608565b965060208801519150808211156200070c57600080fd5b506200071b8882890162000608565b9450506200072c6040870162000699565b92506200073c6060870162000699565b91506200074c6080870162000699565b90509295509295909350565b6000602082840312156200076b57600080fd5b5051919050565b6000602082840312156200078557600080fd5b815180151581146200039857600080fd5b60008251620007aa818460208701620005d5565b9190910192915050565b6020815260008251806020840152620007d5816040850160208701620005d5565b601f01601f19169190910160400192915050565b600181811c90821680620007fe57607f821691505b602082108114156200082057634e487b7160e01b600052602260045260246000fd5b50919050565b6127dd80620008366000396000f3fe608060405234801561001057600080fd5b50600436106101c45760003560e01c806370a08231116100f9578063aee684a511610097578063c87b56dd11610071578063c87b56dd146103d7578063e985e9c5146103ea578063f19a0b5414610426578063f2fde38b1461043957600080fd5b8063aee684a5146103a9578063b6b55f25146103b1578063b88d4fde146103c457600080fd5b80638da5cb5b116100d35780638da5cb5b1461035d57806395d89b411461036e578063a06bb50f14610376578063a22cb4651461039657600080fd5b806370a0823114610321578063715018a6146103345780638688a1ff1461033c57600080fd5b80632e1a7d4d11610166578063633b104511610140578063633b1045146102c85780636352211e146102db5780636d46a1db146102ee5780636d5fb57b1461030e57600080fd5b80632e1a7d4d1461028f57806342842e0e146102a2578063448a1047146102b557600080fd5b8063081812fc116101a2578063081812fc14610234578063095ea7b31461025f57806323b872dd146102745780632be11ae21461028757600080fd5b806301ffc9a7146101c957806305e30f51146101f157806306fdde031461021f575b600080fd5b6101dc6101d7366004612103565b61044c565b60405190151581526020015b60405180910390f35b6102116101ff366004612120565b60136020526000908152604090205481565b6040519081526020016101e8565b61022761049e565b6040516101e89190612191565b610247610242366004612120565b610530565b6040516001600160a01b0390911681526020016101e8565b61027261026d3660046121c0565b6105ca565b005b6102726102823660046121ea565b6106e0565b610272610711565b61027261029d366004612120565b610836565b6102726102b03660046121ea565b610a72565b6102726102c3366004612120565b610a8d565b6102726102d6366004612226565b610bee565b6102476102e9366004612120565b610d7d565b6102116102fc366004612268565b60116020526000908152604090205481565b61027261031c3660046122ca565b610df4565b61021161032f366004612268565b610e31565b610272610eb8565b60085461035090600160a01b900460ff1681565b6040516101e89190612386565b6000546001600160a01b0316610247565b610227610eee565b610211610384366004612120565b60126020526000908152604090205481565b6102726103a43660046123bc565b610efd565b610272610f08565b6102726103bf366004612120565b610f41565b6102726103d23660046123f3565b61112a565b6102276103e5366004612120565b611162565b6101dc6103f83660046124b3565b6001600160a01b03918216600090815260066020908152604080832093909416825291909152205460ff1690565b610272610434366004612268565b61124a565b610272610447366004612268565b611296565b60006001600160e01b031982166380ac58cd60e01b148061047d57506001600160e01b03198216635b5e139f60e01b145b8061049857506301ffc9a760e01b6001600160e01b03198316145b92915050565b6060600180546104ad906124e6565b80601f01602080910402602001604051908101604052809291908181526020018280546104d9906124e6565b80156105265780601f106104fb57610100808354040283529160200191610526565b820191906000526020600020905b81548152906001019060200180831161050957829003601f168201915b5050505050905090565b6000818152600360205260408120546001600160a01b03166105ae5760405162461bcd60e51b815260206004820152602c60248201527f4552433732313a20617070726f76656420717565727920666f72206e6f6e657860448201526b34b9ba32b73a103a37b5b2b760a11b60648201526084015b60405180910390fd5b506000908152600560205260409020546001600160a01b031690565b60006105d582610d7d565b9050806001600160a01b0316836001600160a01b031614156106435760405162461bcd60e51b815260206004820152602160248201527f4552433732313a20617070726f76616c20746f2063757272656e74206f776e656044820152603960f91b60648201526084016105a5565b336001600160a01b038216148061065f575061065f81336103f8565b6106d15760405162461bcd60e51b815260206004820152603860248201527f4552433732313a20617070726f76652063616c6c6572206973206e6f74206f7760448201527f6e6572206e6f7220617070726f76656420666f7220616c6c000000000000000060648201526084016105a5565b6106db8383611490565b505050565b6106ea33826114fe565b6107065760405162461bcd60e51b81526004016105a590612521565b6106db8383836115f4565b6002600854600160a01b900460ff16600381111561073157610731612370565b1461073b57600080fd5b60088054600360a01b60ff60a01b198216179091556040805163429c145b60e11b815290516001600160a01b039092169163853828b69160048082019260009290919082900301818387803b15801561079357600080fd5b505af11580156107a7573d6000803e3d6000fd5b50505050600e54600c546107bb9190612588565b6007546040516370a0823160e01b81523060048201526001600160a01b03909116906370a0823190602401602060405180830381865afa158015610803573d6000803e3d6000fd5b505050506040513d601f19601f8201168201806040525081019061082791906125a7565b61083191906125c0565b600f55565b336000908152601160205260409020546108865760405162461bcd60e51b8152602060048201526011602482015270155cd95c881b9bdd081a5b88195d995b9d607a1b60448201526064016105a5565b6000600854600160a01b900460ff1660038111156108a6576108a6612370565b146108e45760405162461bcd60e51b815260206004820152600e60248201526d22bb32b73a103737ba1037b832b760911b60448201526064016105a5565b336108ee82610d7d565b6001600160a01b0316146109345760405162461bcd60e51b815260206004820152600d60248201526c2737ba103a34329037bbb732b960991b60448201526064016105a5565b3360009081526011602052604081205561094d81611790565b600081815260136020526040812054600d54600c5461096c91906125d7565b6109769190612588565b90506000600860009054906101000a90046001600160a01b03166001600160a01b03166377c7b8fc6040518163ffffffff1660e01b8152600401602060405180830381865afa1580156109cd573d6000803e3d6000fd5b505050506040513d601f19601f820116820180604052508101906109f191906125a7565b6109fb9083612605565b600854604051632e1a7d4d60e01b8152600481018390529192506001600160a01b031690632e1a7d4d90602401600060405180830381600087803b158015610a4257600080fd5b505af1158015610a56573d6000803e3d6000fd5b50506007546106db92506001600160a01b03169050338461182b565b6106db8383836040518060200160405280600081525061112a565b33600090815260116020526040902054610add5760405162461bcd60e51b8152602060048201526011602482015270155cd95c881b9bdd081a5b88195d995b9d607a1b60448201526064016105a5565b6003600854600160a01b900460ff166003811115610afd57610afd612370565b14610b3f5760405162461bcd60e51b8152602060048201526012602482015271115d995b9d081b9bdd08199a5b9a5cda195960721b60448201526064016105a5565b610b4881610836565b6000610b5261185b565b6007546040516370a0823160e01b81523060048201529192506001600160a01b0316906370a0823190602401602060405180830381865afa158015610b9b573d6000803e3d6000fd5b505050506040513d601f19601f82011682018060405250810190610bbf91906125a7565b811115610bcb57600080fd5b610bea33610bd761185b565b6007546001600160a01b0316919061182b565b5050565b6009546001600160a01b03163314610c395760405162461bcd60e51b815260206004820152600e60248201526d2737ba103a34329039b2b93b32b960911b60448201526064016105a5565b6001600160a01b038416600090815260116020526040902054610c9e5760405162461bcd60e51b815260206004820152601d60248201527f57696e6e657220646f65736e277420657869737420696e206576656e7400000060448201526064016105a5565b6001600160a01b038316600090815260116020526040902054610d035760405162461bcd60e51b815260206004820152601c60248201527f4c6f73657220646f65736e277420657869737420696e206576656e740000000060448201526064016105a5565b6001600160a01b0384166000908152601160209081526040808320548352601290915281208054849290610d389084906125d7565b90915550506001600160a01b0383166000908152601160209081526040808320548352601290915281208054839290610d729084906125c0565b909155505050505050565b6000818152600360205260408120546001600160a01b0316806104985760405162461bcd60e51b815260206004820152602960248201527f4552433732313a206f776e657220717565727920666f72206e6f6e657869737460448201526832b73a103a37b5b2b760b91b60648201526084016105a5565b6000546001600160a01b03163314610e1e5760405162461bcd60e51b81526004016105a590612619565b8051610bea90601090602084019061208d565b60006001600160a01b038216610e9c5760405162461bcd60e51b815260206004820152602a60248201527f4552433732313a2062616c616e636520717565727920666f7220746865207a65604482015269726f206164647265737360b01b60648201526084016105a5565b506001600160a01b031660009081526004602052604090205490565b6000546001600160a01b03163314610ee25760405162461bcd60e51b81526004016105a590612619565b610eec600061193f565b565b6060600280546104ad906124e6565b610bea33838361198f565b6000546001600160a01b03163314610f325760405162461bcd60e51b81526004016105a590612619565b6008805460ff60a01b19169055565b6000600854600160a01b900460ff166003811115610f6157610f61612370565b14610f9f5760405162461bcd60e51b815260206004820152600e60248201526d22bb32b73a103737ba1037b832b760911b60448201526064016105a5565b3360009081526011602052604090205415610ff45760405162461bcd60e51b8152602060048201526015602482015274155cd95c88185b1c9958591e481a5b88195d995b9d605a1b60448201526064016105a5565b600b5433600090815260116020908152604080832084905592825260139052908120829055600e805483929061102b9084906125d7565b9091555050600a805460018101825560009182527fc65a7bb8d6351c1cf70c95a316cc6a92839c986682d98bc35f958f4883f9d2a80180546001600160a01b03191633179055600d54600c548391611082916125d7565b61108c9190612588565b6007549091506110a7906001600160a01b0316333084611a5e565b60085460405163b6b55f2560e01b8152600481018390526001600160a01b039091169063b6b55f2590602401600060405180830381600087803b1580156110ed57600080fd5b505af1158015611101573d6000803e3d6000fd5b5050505061111133600b54611a96565b600b80549060006111218361264e565b91905055505050565b61113433836114fe565b6111505760405162461bcd60e51b81526004016105a590612521565b61115c84848484611ab0565b50505050565b6000818152600360205260409020546060906001600160a01b03166111e15760405162461bcd60e51b815260206004820152602f60248201527f4552433732314d657461646174613a2055524920717565727920666f72206e6f60448201526e3732bc34b9ba32b73a103a37b5b2b760891b60648201526084016105a5565b60006111f860408051602081019091526000815290565b905060008151116112185760405180602001604052806000815250611243565b8061122284611ae3565b604051602001611233929190612669565b6040516020818303038152906040525b9392505050565b6000546001600160a01b031633146112745760405162461bcd60e51b81526004016105a590612619565b600980546001600160a01b0319166001600160a01b0392909216919091179055565b6000546001600160a01b031633146112c05760405162461bcd60e51b81526004016105a590612619565b6001600160a01b0381166113255760405162461bcd60e51b815260206004820152602660248201527f4f776e61626c653a206e6577206f776e657220697320746865207a65726f206160448201526564647265737360d01b60648201526084016105a5565b61132e8161193f565b50565b8015806113ab5750604051636eb1769f60e11b81523060048201526001600160a01b03838116602483015284169063dd62ed3e90604401602060405180830381865afa158015611385573d6000803e3d6000fd5b505050506040513d601f19601f820116820180604052508101906113a991906125a7565b155b6114165760405162461bcd60e51b815260206004820152603660248201527f5361666545524332303a20617070726f76652066726f6d206e6f6e2d7a65726f60448201527520746f206e6f6e2d7a65726f20616c6c6f77616e636560501b60648201526084016105a5565b6040516001600160a01b0383166024820152604481018290526106db90849063095ea7b360e01b906064015b60408051601f198184030181529190526020810180516001600160e01b03166001600160e01b031990931692909217909152611be1565b60606114888484600085611cb3565b949350505050565b600081815260056020526040902080546001600160a01b0319166001600160a01b03841690811790915581906114c582610d7d565b6001600160a01b03167f8c5be1e5ebec7d5bd14f71427d1e84f3dd0314c0f7b2291e5b200ac8c7c3b92560405160405180910390a45050565b6000818152600360205260408120546001600160a01b03166115775760405162461bcd60e51b815260206004820152602c60248201527f4552433732313a206f70657261746f7220717565727920666f72206e6f6e657860448201526b34b9ba32b73a103a37b5b2b760a11b60648201526084016105a5565b600061158283610d7d565b9050806001600160a01b0316846001600160a01b031614806115c957506001600160a01b0380821660009081526006602090815260408083209388168352929052205460ff165b806114885750836001600160a01b03166115e284610530565b6001600160a01b031614949350505050565b826001600160a01b031661160782610d7d565b6001600160a01b03161461166b5760405162461bcd60e51b815260206004820152602560248201527f4552433732313a207472616e736665722066726f6d20696e636f72726563742060448201526437bbb732b960d91b60648201526084016105a5565b6001600160a01b0382166116cd5760405162461bcd60e51b8152602060048201526024808201527f4552433732313a207472616e7366657220746f20746865207a65726f206164646044820152637265737360e01b60648201526084016105a5565b6116d8600082611490565b6001600160a01b03831660009081526004602052604081208054600192906117019084906125c0565b90915550506001600160a01b038216600090815260046020526040812080546001929061172f9084906125d7565b909155505060008181526003602052604080822080546001600160a01b0319166001600160a01b0386811691821790925591518493918716917fddf252ad1be2c89b69c2b068fc378daa952ba7f163c4a11628f55a4df523b3ef91a4505050565b600061179b82610d7d565b90506117a8600083611490565b6001600160a01b03811660009081526004602052604081208054600192906117d19084906125c0565b909155505060008281526003602052604080822080546001600160a01b0319169055518391906001600160a01b038416907fddf252ad1be2c89b69c2b068fc378daa952ba7f163c4a11628f55a4df523b3ef908390a45050565b6040516001600160a01b0383166024820152604481018290526106db90849063a9059cbb60e01b90606401611442565b600080805b600a5481101561190d576000600a828154811061187f5761187f612698565b600091825260208083209091015433808452601183526040808520548552601290935291909220546001600160a01b03909216925082146118f8576001600160a01b03821660009081526011602090815260408083205483526012909152902054818111156118f657846118f28161264e565b9550505b505b505080806119059061264e565b915050611860565b506010818154811061192157611921612698565b9060005260206000200154600f546119399190612588565b91505090565b600080546001600160a01b038381166001600160a01b0319831681178455604051919092169283917f8be0079c531659141344cd1fd0a4f28419497f9722a3daafe3b4186f6b6457e09190a35050565b816001600160a01b0316836001600160a01b031614156119f15760405162461bcd60e51b815260206004820152601960248201527f4552433732313a20617070726f766520746f2063616c6c65720000000000000060448201526064016105a5565b6001600160a01b03838116600081815260066020908152604080832094871680845294825291829020805460ff191686151590811790915591519182527f17307eab39ab6107e8899845ad3d59bd9653f200f220920489ca2b5937696c31910160405180910390a3505050565b6040516001600160a01b038085166024830152831660448201526064810182905261115c9085906323b872dd60e01b90608401611442565b610bea828260405180602001604052806000815250611de4565b611abb8484846115f4565b611ac784848484611e17565b61115c5760405162461bcd60e51b81526004016105a5906126ae565b606081611b075750506040805180820190915260018152600360fc1b602082015290565b8160005b8115611b315780611b1b8161264e565b9150611b2a9050600a83612605565b9150611b0b565b60008167ffffffffffffffff811115611b4c57611b4c612283565b6040519080825280601f01601f191660200182016040528015611b76576020820181803683370190505b5090505b841561148857611b8b6001836125c0565b9150611b98600a86612700565b611ba39060306125d7565b60f81b818381518110611bb857611bb8612698565b60200101906001600160f81b031916908160001a905350611bda600a86612605565b9450611b7a565b6000611c36826040518060400160405280602081526020017f5361666545524332303a206c6f772d6c6576656c2063616c6c206661696c6564815250856001600160a01b03166114799092919063ffffffff16565b8051909150156106db5780806020019051810190611c549190612714565b6106db5760405162461bcd60e51b815260206004820152602a60248201527f5361666545524332303a204552433230206f7065726174696f6e20646964206e6044820152691bdd081cdd58d8d9595960b21b60648201526084016105a5565b606082471015611d145760405162461bcd60e51b815260206004820152602660248201527f416464726573733a20696e73756666696369656e742062616c616e636520666f6044820152651c8818d85b1b60d21b60648201526084016105a5565b6001600160a01b0385163b611d6b5760405162461bcd60e51b815260206004820152601d60248201527f416464726573733a2063616c6c20746f206e6f6e2d636f6e747261637400000060448201526064016105a5565b600080866001600160a01b03168587604051611d879190612731565b60006040518083038185875af1925050503d8060008114611dc4576040519150601f19603f3d011682016040523d82523d6000602084013e611dc9565b606091505b5091509150611dd9828286611f12565b979650505050505050565b611dee8383611f4b565b611dfb6000848484611e17565b6106db5760405162461bcd60e51b81526004016105a5906126ae565b60006001600160a01b0384163b15611f0a57604051630a85bd0160e11b81526001600160a01b0385169063150b7a0290611e5b90339089908890889060040161274d565b6020604051808303816000875af1925050508015611e96575060408051601f3d908101601f19168201909252611e939181019061278a565b60015b611ef0573d808015611ec4576040519150601f19603f3d011682016040523d82523d6000602084013e611ec9565b606091505b508051611ee85760405162461bcd60e51b81526004016105a5906126ae565b805181602001fd5b6001600160e01b031916630a85bd0160e11b149050611488565b506001611488565b60608315611f21575081611243565b825115611f315782518084602001fd5b8160405162461bcd60e51b81526004016105a59190612191565b6001600160a01b038216611fa15760405162461bcd60e51b815260206004820181905260248201527f4552433732313a206d696e7420746f20746865207a65726f206164647265737360448201526064016105a5565b6000818152600360205260409020546001600160a01b0316156120065760405162461bcd60e51b815260206004820152601c60248201527f4552433732313a20746f6b656e20616c7265616479206d696e7465640000000060448201526064016105a5565b6001600160a01b038216600090815260046020526040812080546001929061202f9084906125d7565b909155505060008181526003602052604080822080546001600160a01b0319166001600160a01b03861690811790915590518392907fddf252ad1be2c89b69c2b068fc378daa952ba7f163c4a11628f55a4df523b3ef908290a45050565b8280548282559060005260206000209081019282156120c8579160200282015b828111156120c85782518255916020019190600101906120ad565b506120d49291506120d8565b5090565b5b808211156120d457600081556001016120d9565b6001600160e01b03198116811461132e57600080fd5b60006020828403121561211557600080fd5b8135611243816120ed565b60006020828403121561213257600080fd5b5035919050565b60005b8381101561215457818101518382015260200161213c565b8381111561115c5750506000910152565b6000815180845261217d816020860160208601612139565b601f01601f19169290920160200192915050565b6020815260006112436020830184612165565b80356001600160a01b03811681146121bb57600080fd5b919050565b600080604083850312156121d357600080fd5b6121dc836121a4565b946020939093013593505050565b6000806000606084860312156121ff57600080fd5b612208846121a4565b9250612216602085016121a4565b9150604084013590509250925092565b6000806000806080858703121561223c57600080fd5b612245856121a4565b9350612253602086016121a4565b93969395505050506040820135916060013590565b60006020828403121561227a57600080fd5b611243826121a4565b634e487b7160e01b600052604160045260246000fd5b604051601f8201601f1916810167ffffffffffffffff811182821017156122c2576122c2612283565b604052919050565b600060208083850312156122dd57600080fd5b823567ffffffffffffffff808211156122f557600080fd5b818501915085601f83011261230957600080fd5b81358181111561231b5761231b612283565b8060051b915061232c848301612299565b818152918301840191848101908884111561234657600080fd5b938501935b838510156123645784358252938501939085019061234b565b98975050505050505050565b634e487b7160e01b600052602160045260246000fd5b60208101600483106123a857634e487b7160e01b600052602160045260246000fd5b91905290565b801515811461132e57600080fd5b600080604083850312156123cf57600080fd5b6123d8836121a4565b915060208301356123e8816123ae565b809150509250929050565b6000806000806080858703121561240957600080fd5b612412856121a4565b935060206124218187016121a4565b935060408601359250606086013567ffffffffffffffff8082111561244557600080fd5b818801915088601f83011261245957600080fd5b81358181111561246b5761246b612283565b61247d601f8201601f19168501612299565b9150808252898482850101111561249357600080fd5b808484018584013760008482840101525080935050505092959194509250565b600080604083850312156124c657600080fd5b6124cf836121a4565b91506124dd602084016121a4565b90509250929050565b600181811c908216806124fa57607f821691505b6020821081141561251b57634e487b7160e01b600052602260045260246000fd5b50919050565b60208082526031908201527f4552433732313a207472616e736665722063616c6c6572206973206e6f74206f6040820152701ddb995c881b9bdc88185c1c1c9bdd9959607a1b606082015260800190565b634e487b7160e01b600052601160045260246000fd5b60008160001904831182151516156125a2576125a2612572565b500290565b6000602082840312156125b957600080fd5b5051919050565b6000828210156125d2576125d2612572565b500390565b600082198211156125ea576125ea612572565b500190565b634e487b7160e01b600052601260045260246000fd5b600082612614576126146125ef565b500490565b6020808252818101527f4f776e61626c653a2063616c6c6572206973206e6f7420746865206f776e6572604082015260600190565b600060001982141561266257612662612572565b5060010190565b6000835161267b818460208801612139565b83519083019061268f818360208801612139565b01949350505050565b634e487b7160e01b600052603260045260246000fd5b60208082526032908201527f4552433732313a207472616e7366657220746f206e6f6e20455243373231526560408201527131b2b4bb32b91034b6b83632b6b2b73a32b960711b606082015260800190565b60008261270f5761270f6125ef565b500690565b60006020828403121561272657600080fd5b8151611243816123ae565b60008251612743818460208701612139565b9190910192915050565b6001600160a01b038581168252841660208201526040810183905260806060820181905260009061278090830184612165565b9695505050505050565b60006020828403121561279c57600080fd5b8151611243816120ed56fea26469706673582212209d78e68698de100baaedf3333723340a9b5b3668dd1546ebe2454b864e0ff2e364736f6c634300080a0033",
  "linkReferences": {},
  "deployedLinkReferences": {}
}